:0400000066EF04F0B3
:1008000000001F0E936E95908A6A8C90036A400ECA
:100810008A6EA30E016E550EE82EFED7012EFCD770
:1008200000008A6AA30E016E550EE82EFED7012E37
:10083000FCD70000032A020E0364E9D739D0200E4A
:100840008A6E040E026ECF0E016E020EE82EFED7E7
:10085000012EFCD7022EFAD7032A2AD0400E8A6E28
:10086000020E026E450E016EAA0EE82EFED7012E74
:10087000FCD7022EFAD7F0D7800E8A6E030E026ED6
:100880008A0E016E560EE82EFED7012EFCD7022EE0
:10089000FAD7E2D7C00E8A6E020E026E450E016EC6
:1008A000AA0EE82EFED7012EFCD7022EFAD7036A35
:1008B0000350000AD8B4C3D7010AD8B4CFD7030A6B
:1008C000D8B4DAD7010AD8B4E5D7F1D7000EF86E5C
:0608D000000101EF04F03D
:020000040020DA
:08000000FFFFFFFFFFFFFFFF00
:020000040030CA
:0E00000000091F1EFF8181FF0FC00FE00F409F
:00000001FF
