:020000040000FA
:0400000006EF00F017
:080008003EEF00F0F80E956ECA
:10001000010ED56E0B0ED76EDC0ED66EF294F28A00
:10002000F28EF28E8A6A8C6A2AEC00F003502AEC77
:1000300000F004502AEC00F08C822AEC00F08C9442
:100040002AEC00F005502AEC00F08C822AEC00F03B
:1000500013EF00F0FE0E006E9B0E016E020E026E9C
:10006000002E30EF00F0FE0E006E012E30EF00F09B
:100070009B0E016E022E30EF00F01200F2940B0E78
:0A008000D76EDC0ED66E8C701000F7
:020000040030CA
:0100000000FF
:0100010009F5
:010002001FDE
:010003001EDE
:010005008377
:010006008178
:010008000FE8
:01000900C036
:01000A000FE6
:01000B00E014
:01000C000FE4
:01000D0040B2
:00000001FF
