:020000040000FA
:0400000006EF00F017
:080008004AEF00F0F80E956EBE
:10001000010ED56E0B0ED76EDC0ED66EF294F29AF0
:10002000F29E9D9AF29E8C6A000E8C6E36EC00F069
:10003000040E8C6E36EC00F0060E8C6E36EC00F082
:10004000020E8C6E36EC00F0050E8C6E36EC00F075
:10005000070E8C6E36EC00F0030E8C6E36EC00F062
:10006000010E8C6E36EC00F014EF00F0FE0E006E08
:100070009B0E016E020E026E002E3CEF00F0FE0E93
:10008000006E012E3CEF00F09B0E016E022E3CEF45
:1000900000F01200F2940B0ED76EDC0ED66E8C7050
:0200A00010004E
:020000040030CA
:0100000000FF
:0100010009F5
:010002001FDE
:010003001EDE
:010005008377
:010006008178
:010008000FE8
:01000900C036
:01000A000FE6
:01000B00E014
:01000C000FE4
:01000D0040B2
:00000001FF
