:020000040000FA
:0400000006EF00F017
:0800080045EF00F0600ED36E1D
:10001000F80E956EF29AF29E9D9AF29E8C6A000EF0
:100020008C6E31EC00F0040E8C6E31EC00F0060E9C
:100030008C6E31EC00F0020E8C6E31EC00F0050E8F
:100040008C6E31EC00F0070E8C6E31EC00F0030E7C
:100050008C6E31EC00F0010E8C6E31EC00F00FEF85
:1000600000F0FE0E006E9B0E016E020E026E002E60
:1000700037EF00F0FE0E006E012E37EF00F09B0E02
:10008000016E022E37EF00F01200F2940B0ED76EC5
:08009000DC0ED66E8C7010002E
:020000040030CA
:0100000000FF
:0100010009F5
:010002001FDE
:010003001EDE
:010005008377
:010006008178
:010008000FE8
:01000900C036
:01000A000FE6
:01000B00E014
:01000C000FE4
:01000D0040B2
:00000001FF
