:04000000B4EF04F065
:1008000000008C90040E0718D8A404D08C500F0B55
:10081000300901D03F0E8C6ED8EC04F0010E4FEC85
:1008200004F0040E0718D8A404D08C500F0B300924
:1008300001D03F0E8C6ED8EC04F0030E4FEC04F0A8
:10084000040E0718D8A404D08C500F0B300901D027
:100850003F0E8C6ED8EC04F0040E4FEC04F0040E46
:100860000718D8A411D08C500F0B20098C6ED8EC2F
:1008700004F0040E4FEC04F02F0E7AEC04F0D8ECE8
:1008800004F0040E4FEC04F0CEEC04F00F0E7AEC02
:1008900004F0D8EC04F0040E4FEC04F01200026EE9
:1008A0001BD0050E016EDE0EE82EFED7012EFCD702
:1008B0001200530EE82EFED70000350EE82EFED7AC
:1008C00000001200080EE82EFED700001200030EF2
:1008D000E82EFED7000012000250010AD8B4E1D77A
:1008E000030AD8B4E6D7010AD8B4ECD7070AD8A4CB
:1008F0001200EDD7046E040E0718D8A417D004C058
:1009000003F0F00E03168C500F0B03108C6ED8EC16
:1009100004F0010E4FEC04F004C003F0033AF00EB3
:1009200003168C500F0B03108C6E1200080E071864
:10093000D8A4120004C08CFF12000F0EC16E926A80
:10094000936A896A8C6A020E066E450E056EAA0EBF
:10095000E82EFED7052EFCD7062EFAD7040EC2ECE1
:1009600004F001EC04F0FFD7BE0EF66E090EF76E30
:10097000000EF86E0900F5CF07F0000EF86E0001CA
:100980009DEF04F0016E040E0118D8B404D0080ED7
:100990000118D8A4120001C007F012008C90010EBB
:1009A0007AEC04F0D8EC04F0020E4FEC04F01200E4
:0F09B0008C82030EE82EFED700008C92120008F6
:020000040020DA
:08000000FFFFFFFFFFFFFFFF00
:020000040030CA
:0E00000000091F1EFF8385FF0FC00FE00F4099
:00000001FF
