:020000040000FA
:0400000006EF00F017
:080008003DEF00F01F0E936EA6
:1000100095908C90010ED56E0B0ED76EDC0ED66EC1
:10002000F294F28AF28ED58E8A6A200E8A6E29ECBC
:1000300000F0400E8A6E29EC00F0800E8A6E29ECEA
:1000400000F029EC00F0C00E8A6E29EC00F015EFEC
:1000500000F0FF0E006EA10E016E020E026E002E69
:100060002FEF00F0FF0E006E012E2FEF00F0A10E1B
:10007000016E022E2FEF00F01200F2940B0ED76EDD
:08008000DC0ED66E8C7010003E
:020000040030CA
:0400000000091F1EB6
:020005008381F5
:060008000FC00FE00F40E5
:00000001FF
