:0400000007EF00F016
:0A000800058201ED04F094EF04F00E
:1008000000000600F2A058D0F00E8118D8B44BD0EA
:10081000046AFE0E8A6E81B802D0010E41D081BA00
:1008200002D0020E3DD081BC02D0030E39D081BE71
:1008300002D0040E35D0FD0E8A6E81B802D0050EAE
:100840002FD081BA02D0060E2BD081BC02D0070E69
:1008500027D081BE02D0080E23D0FB0E8A6E81B84D
:1008600002D0090E1DD081BA02D00A0E19D081BC67
:1008700002D00B0E15D081BE02D00C0E11D0F70E97
:100880008A6E81B802D00D0E0BD081BA02D00E0E46
:1008900007D081BC02D00F0E03D081BE02D0100E53
:1008A000046EF00E8A6E210E016E760EE82EFED7D3
:1008B000012EFCD700D0F290F2A40AD0F2940B0ED5
:1008C000D76EDC0ED66E8CB202D08C8201D08C92A8
:1008D00005921100F00E936E956A8A6A8C6AF19EF9
:1008E000210E026E760EE82EFED7022EFCD700D027
:1008F000F290F286F28E036A11D08C80820E026E24
:10090000DE0EE82EFED7022EFCD78C90820E026EF1
:10091000DE0EE82EFED7022EFCD7032A0450035C1D
:10092000D8A0EBD7046AE7D7046A059005920001C6
:040930006AEF04F076
:020000040020DA
:08000000FFFFFFFFFFFFFFFF00
:020000040030CA
:0E00000000091F1EFF8181FF0FC00FE00F409F
:00000001FF
