:020000040000FA
:10000000966A93800F0EC16E38EC00F08D6AF30E85
:100010003CEC00F038EC00F08D84500E3CEC00F02D
:1000200038EC00F08D82A20E3CEC00F038EC00F0D1
:100030008D94500E3CEC00F038EC00F08D80A20E58
:100040003CEC00F038EC00F08D84F30E3CEC00F05A
:1000500038EC00F08D92A20E3CEC00F038EC00F091
:100060008D94500E3CEC00F038EC00F004EF00F002
:1000700081A038EF00F01200006E002E3DEF00F07E
:0200800012006C
:020000040030CA
:0100000000FF
:0100010005F9
:010002001FDE
:010003001EDE
:010005008377
:010006008178
:010008000FE8
:01000900C036
:01000A000FE6
:01000B00E014
:01000C000FE4
:01000D0040B2
:00000001FF
