:0400000007EF00F016
:0A0008001782DDED05F01AEF07F096
:100800000000F00E936E956A8A6A8C6AF19E210E42
:100810000F6E760EE82EFED70F2EFCD700D0F2908A
:10082000F286F28E020E106E450E0F6EAA0EE82EA4
:10083000FED70F2EFCD7102EFAD7040E2CEC07F0A3
:1008400046EC06F0420E38EC07F0690E38EC07F083
:10085000650E38EC07F06E0E38EC07F0760E38ECCB
:1008600007F0650E38EC07F06E0E38EC07F0690EF5
:1008700038EC07F0640E38EC07F06F0E38EC07F038
:10088000730E38EC07F0200E38EC07F0630E38ECEE
:1008900007F03A0E38EC07F0070E106E580E0F6E88
:1008A0005A0EE82EFED70F2EFCD7102EFAD74EEC9C
:1008B00007F0800E43EC07F0500E38EC07F0690E9D
:1008C00038EC07F0650E38EC07F07A0E38EC07F0DC
:1008D000610E38EC07F0730E38EC07F0200E38ECA0
:1008E00007F0610E38EC07F0200E38EC07F0630ECD
:1008F00038EC07F06F0E38EC07F06E0E38EC07F0AE
:10090000740E38EC07F0610E38EC07F0720E38EC1C
:1009100007F03A0E38EC07F0200E38EC07F0C00E66
:1009200043EC07F00B0E156055D00A0E1518D8B41D
:1009300004D015C011F0126A04D0000E126E000E21
:10094000116E11C013F014500A0DF3501324146EDD
:10095000020E0A6E14506AEC05F03B0E1464E2D7E6
:10096000146A4EEC07F0800E43EC07F0500E38ECA2
:1009700007F0690E38EC07F0650E38EC07F07A0ED8
:1009800038EC07F0610E38EC07F0730E38EC07F026
:10099000200E38EC07F0610E38EC07F0200E38EC32
:1009A00007F0630E38EC07F06F0E38EC07F06E0EB0
:1009B00038EC07F0740E38EC07F0610E38EC07F0F5
:1009C000720E38EC07F03A0E38EC07F0200E38ECD7
:1009D00007F0A8D7100E1518D8A4A4D74EEC07F02E
:1009E000800E43EC07F0500E38EC07F0690E38EC3F
:1009F00007F0650E38EC07F07A0E38EC07F0610E60
:100A000038EC07F0730E38EC07F0200E38EC07F0E6
:100A1000660E38EC07F0610E38EC07F06C0E38EC1F
:100A200007F0740E38EC07F0610E38EC07F06E0E2C
:100A300038EC07F0740E38EC07F0650E38EC07F070
:100A4000730E38EC07F03A0E38EC07F0200E38EC55
:100A500007F0020E0A6E14506AEC05F0940E43EC97
:100A600007F0430E38EC07F0750E38EC07F0650E12
:100A700038EC07F06E0E38EC07F0740E38EC07F027
:100A8000610E38EC07F0200E38EC07F06F0E38ECF2
:100A900007F0620E38EC07F06A0E38EC07F0650ECE
:100AA00038EC07F0740E38EC07F0690E38EC07F0FC
:100AB000760E38EC07F06F0E38EC07F03A0E38EC93
:100AC00007F0200E38EC07F0020E0A6E14506AECA4
:100AD00005F028D70E6E8C8065D00A0E026E0E507F
:100AE00006EC07F00D6E0D50300FC7EC06F058EC19
:100AF00007F0040E94EC06F012000A0E066E640E67
:100B0000026E0E5006EC07F0EAEC06F00C6E0A0ED0
:100B1000026E0E5006EC07F00D6E0C50300FC7EC55
:100B200006F058EC07F0040E94EC06F00D50300F70
:100B3000C7EC06F058EC07F0040E94EC06F0120037
:100B4000640E066E0E50EAEC06F00B6E0A0E066E90
:100B5000640E026E0E5006EC07F0EAEC06F00C6E26
:100B60000A0E026E0E5006EC07F00D6E0B50300FA1
:100B7000C7EC06F058EC07F0040E94EC06F00C50AD
:100B8000300FC7EC06F058EC07F0040E94EC06F0BA
:100B90000D50300FC7EC06F058EC07F0040E94EC43
:100BA00006F012000A50010AD8B497D7030AD8B445
:100BB000A4D7010AD8A41200C3D70600F2A058D0C7
:100BC000F00E8118D8B44BD0156AFE0E8A6E81B82B
:100BD00002D0010E41D081BA02D0020E3DD081BCBC
:100BE00002D0030E39D081BE02D0040E35D0FD0EE6
:100BF0008A6E81B802D0050E2FD081BA02D0060EBF
:100C00002BD081BC02D0070E27D081BE02D0080EA7
:100C100023D0FB0E8A6E81B802D0090E1DD081BA96
:100C200002D00A0E19D081BC02D00B0E15D081BEA5
:100C300002D00C0E11D0F70E8A6E81B802D00D0EC4
:100C40000BD081BA02D00E0E07D081BC02D00F0E9D
:100C500003D081BE02D0100E156EF00E8A6E210EEA
:100C6000016E760EE82EFED7012EFCD700D0F29052
:100C7000F2A40AD0F2940B0ED76EDC0ED66E8CB2B4
:100C800002D08C8201D08C92179211008C90040EAD
:100C90001618D8A404D08C500F0B300901D03F0E89
:100CA0008C6E58EC07F0010E94EC06F0040E16184A
:100CB000D8A404D08C500F0B300901D03F0E8C6E9D
:100CC00058EC07F0030E94EC06F0040E1618D8A4A6
:100CD00004D08C500F0B300901D03F0E8C6E58ECB5
:100CE00007F0040E94EC06F0040E1618D8A411D0E8
:100CF0008C500F0B20098C6E58EC07F0040E94EC0E
:100D000006F02F0EC7EC06F058EC07F0040E94EC3A
:100D100006F04EEC07F00F0EC7EC06F058EC07F0AB
:100D2000040E94EC06F01200036E23D0620E026EE5
:100D3000660EE82EFED7022EFCD71200070E026EBA
:100D40007D0EE82EFED7022EFCD70000050E026EA7
:100D5000260EE82EFED7022EFCD700D01200A60EDB
:100D6000E82EFED700D01200420EE82EFED700D0AB
:100D700012000350010AD8B4D9D7030AD8B4DED779
:100D8000010AD8B4ECD7070AD8A41200EDD7056E33
:100D9000040E1618D8A417D005C004F0F00E0416DF
:100DA0008C500F0B04108C6E58EC07F0010E94EC75
:100DB00006F005C004F0043AF00E04168C500F0B38
:100DC00004108C6E1200080E1618D8A4120005C06C
:100DD0008CFF1200076E096A0650D8B415D0010EB8
:100DE000086E03D0D8900636082A06AEFBD7D890F6
:100DF00009360650075CD8A003D00650075E09806C
:100E0000D8900632082EF3D709501200036E080E50
:100E1000046E056AD89003340534056ED890033605
:100E20000250055CD8A002D00250055E042EF2D715
:100E300005501200BE0EF66E0E0EF76E000EF86E26
:100E40000900F5CF16F0156A146A17901792000E74
:100E5000F86E000101EF04F0026E040E0218D8B41F
:100E600004D0080E0218D8A4120002C016F0120016
:100E7000066E8C800650C7EC06F058EC07F0040EA6
:100E800094EC06F01200066E8C900650C7EC06F04B
:100E900058EC07F0040E94EC06F012008C90010E52
:100EA000C7EC06F058EC07F0020E94EC06F01200C6
:0F0EB0008C82420EE82EFED700D08C92120008E2
:020000040020DA
:08000000FFFFFFFFFFFFFFFF00
:020000040030CA
:0E00000000091F1EFF8181FF0FC00FE00F409F
:00000001FF
