:0400000007EF00F016
:0A0008001682AEED06F023EF08F0BB
:100800000000F00E936E956A8A6A8C6AF19E210E42
:100810000F6E760EE82EFED70F2EFCD700D0F2908A
:10082000F286F28E020E106E450E0F6EAA0EE82EA4
:10083000FED70F2EFCD7102EFAD7040E36EC08F098
:1008400017EC07F0420E42EC08F0690E42EC08F09B
:10085000650E42EC08F06E0E42EC08F0760E42ECAB
:1008600008F0650E42EC08F06E0E42EC08F0690EDE
:1008700042EC08F0640E42EC08F06F0E42EC08F017
:10088000730E42EC08F0200E42EC08F0630E42ECCE
:1008900008F03A0E42EC08F0070E106E580E0F6E7C
:1008A0005A0EE82EFED70F2EFCD7102EFAD758EC92
:1008B00008F0800E4DEC08F0500E42EC08F0690E86
:1008C00042EC08F0650E42EC08F07A0E42EC08F0BB
:1008D000610E42EC08F0730E42EC08F0200E42EC80
:1008E00008F0610E42EC08F0200E42EC08F0630EB6
:1008F00042EC08F06F0E42EC08F06E0E42EC08F08D
:10090000740E42EC08F0610E42EC08F0720E42ECFC
:1009100008F03A0E42EC08F0200E42EC08F0C00E4F
:100920004DEC08F01450D8B457D0040E1418D8B4B5
:1009300053D00C0E146050D0145065EC07F0116EBB
:100940001128D8B40CD013500A0DF3501124136E93
:10095000020E0A6E13503BEC06F013C012F03B0E71
:100960001364E0D7136A58EC08F0800E4DEC08F0E1
:10097000500E42EC08F0690E42EC08F0650E42ECB5
:1009800008F07A0E42EC08F0610E42EC08F0730EAB
:1009900042EC08F0200E42EC08F0610E42EC08F048
:1009A000200E42EC08F0630E42EC08F06F0E42ECB1
:1009B00008F06E0E42EC08F0740E42EC08F0610E86
:1009C00042EC08F0720E42EC08F03A0E42EC08F0ED
:1009D000200E42EC08F0A6D70D0E1418D8A47CD037
:1009E00058EC08F0800E4DEC08F0500E42EC08F088
:1009F000690E42EC08F0650E42EC08F07A0E42EC0B
:100A000008F0610E42EC08F0730E42EC08F0200E84
:100A100042EC08F0660E42EC08F0610E42EC08F081
:100A20006C0E42EC08F0740E42EC08F0610E42ECE1
:100A300008F06E0E42EC08F0740E42EC08F0650E01
:100A400042EC08F0730E42EC08F03A0E42EC08F06B
:100A5000200E42EC08F0020E0A6E12503BEC06F03B
:100A6000940E4DEC08F0430E42EC08F0750E42EC8B
:100A700008F0650E42EC08F06E0E42EC08F0740EC1
:100A800042EC08F0610E42EC08F0200E42EC08F057
:100A90006F0E42EC08F0620E42EC08F06A0E42EC77
:100AA00008F0650E42EC08F0740E42EC08F0690E96
:100AB00042EC08F0760E42EC08F06F0E42EC08F0C3
:100AC0003A0E42EC08F0200E42EC08F0020E0A6EDC
:100AD00013503BEC06F026D7040E1418D8A480D08F
:100AE0001250D8B47DD0120658EC08F0800E4DECB0
:100AF00008F0500E42EC08F0690E42EC08F0650E6A
:100B000042EC08F07A0E42EC08F0610E42EC08F07C
:100B1000730E42EC08F0200E42EC08F0660E42EC38
:100B200008F0610E42EC08F06C0E42EC08F0740E16
:100B300042EC08F0610E42EC08F06E0E42EC08F058
:100B4000740E42EC08F0650E42EC08F0730E42ECB5
:100B500008F03A0E42EC08F0200E42EC08F0020ECB
:100B60000A6E12503BEC06F0940E4DEC08F0430E6A
:100B700042EC08F0750E42EC08F0650E42EC08F00D
:100B80006E0E42EC08F0740E42EC08F0610E42EC7E
:100B900008F0200E42EC08F06F0E42EC08F0620EF6
:100BA00042EC08F06A0E42EC08F0650E42EC08F0E8
:100BB000740E42EC08F0690E42EC08F0760E42EC3E
:100BC00008F06F0E42EC08F03A0E42EC08F0200EEE
:100BD00042EC08F0020E0A6E13503BEC06F0A2D66F
:100BE000040E1418D8A49ED61250D8A49BD658EC44
:100BF00008F0800E4DEC08F0430E42EC08F0750E44
:100C000042EC08F0650E42EC08F06E0E42EC08F083
:100C1000740E42EC08F0610E42EC08F0200E42EC3B
:100C200008F0660E42EC08F0690E42EC08F06E0E19
:100C300042EC08F0610E42EC08F06C0E42EC08F059
:100C4000690E42EC08F07A0E42EC08F0610E42ECBC
:100C500008F0640E42EC08F0610E42EC08F0070E5A
:100C6000106E580E0F6E5A0EE82EFED70F2EFCD7C0
:100C7000102EFAD757D60E6E8C8065D00A0E026EF3
:100C80000E500FEC08F00D6E0D50300FD0EC07F049
:100C900062EC08F0040E9DEC07F012000A0E066EDE
:100CA000640E026E0E500FEC08F0F3EC07F00C6EC1
:100CB0000A0E026E0E500FEC08F00D6E0C50300F45
:100CC000D0EC07F062EC08F0040E9DEC07F00D503C
:100CD000300FD0EC07F062EC08F0040E9DEC07F04A
:100CE0001200640E066E0E50F3EC07F00B6E0A0E47
:100CF000066E640E026E0E500FEC08F0F3EC07F077
:100D00000C6E0A0E026E0E500FEC08F00D6E0B50BA
:100D1000300FD0EC07F062EC08F0040E9DEC07F009
:100D20000C50300FD0EC07F062EC08F0040E9DEC94
:100D300007F00D50300FD0EC07F062EC08F0040E15
:100D40009DEC07F012000A50010AD8B497D7030AA5
:100D5000D8B4A4D7010AD8A41200C3D70600F2A0C1
:100D600058D0F00E8118D8B44BD0146AFE0E8A6E9B
:100D700081B802D0010E41D081BA02D0020E3DD01E
:100D800081BC02D0030E39D081BE02D0040E35D012
:100D9000FD0E8A6E81B802D0050E2FD081BA02D026
:100DA000060E2BD081BC02D0070E27D081BE02D008
:100DB000080E23D0FB0E8A6E81B802D0090E1DD01A
:100DC00081BA02D00A0E19D081BC02D00B0E15D008
:100DD00081BE02D00C0E11D0F70E8A6E81B802D0FF
:100DE0000D0E0BD081BA02D00E0E07D081BC02D0FE
:100DF0000F0E03D081BE02D0100E146EF00E8A6E5C
:100E0000210E016E760EE82EFED7012EFCD700D003
:100E1000F290F2A40AD0F2940B0ED76EDC0ED66ECE
:100E20008CB202D08C8201D08C92169211008C90E0
:100E3000040E1518D8A404D08C500F0B300901D023
:100E40003F0E8C6E62EC08F0010E9DEC07F0040E74
:100E50001518D8A404D08C500F0B300901D03F0EC8
:100E60008C6E62EC08F0030E9DEC07F0040E151872
:100E7000D8A404D08C500F0B300901D03F0E8C6EDB
:100E800062EC08F0040E9DEC07F0040E1518D8A4CF
:100E900011D08C500F0B20098C6E62EC08F0040E00
:100EA0009DEC07F02F0ED0EC07F062EC08F0040E7A
:100EB0009DEC07F058EC08F00F0ED0EC07F062EC58
:100EC00008F0040E9DEC07F01200026E16D0010E21
:100ED0001200040E1200070E1200020E1200050E80
:100EE0001200080E1200000E1200030E1200060E71
:100EF0001200090E1200FF0E12000250010AD8B4AF
:100F0000E6D7030AD8B4E5D7010AD8B4E4D7060A6D
:100F1000D8B4E3D7030AD8B4E2D7010AD8B4E1D7EA
:100F20000F0AD8B4E0D7010AD8B4DFD7030AD8B47F
:100F3000DED7010AD8B4DDD7DED7036E23D0620E28
:100F4000026E660EE82EFED7022EFCD71200070EA8
:100F5000026E7D0EE82EFED7022EFCD70000050E95
:100F6000026E260EE82EFED7022EFCD700D012000D
:100F7000A60EE82EFED700D01200420EE82EFED7B5
:100F800000D012000350010AD8B4D9D7030AD8B44C
:100F9000DED7010AD8B4ECD7070AD8A41200EDD7DF
:100FA000056E040E1518D8A417D005C004F0F00E75
:100FB00004168C500F0B04108C6E62EC08F0010EBE
:100FC0009DEC07F005C004F0043AF00E04168C50B6
:100FD0000F0B04108C6E1200080E1518D8A4120006
:100FE00005C08CFF1200076E096A0650D8B415D0F0
:100FF000010E086E03D0D8900636082A06AEFBD73D
:10100000D89009360650075CD8A003D00650075E7A
:101010000980D8900632082EF3D709501200036ECB
:10102000080E046E056AD89003340534056ED89016
:1010300003360250055CD8A002D00250055E042E93
:10104000F2D705501200D20EF66E100EF76E000E9B
:10105000F86E0900F5CF15F0146A136A126A16903B
:101060001692000EF86E000101EF04F0026E040EFD
:101070000218D8B404D0080E0218D8A4120002C076
:1010800015F01200066E8C800650D0EC07F062EC72
:1010900008F0040E9DEC07F01200066E8C900650CE
:1010A000D0EC07F062EC08F0040E9DEC07F01200A3
:1010B0008C90010ED0EC07F062EC08F0020E9DEC73
:1010C00007F012008C82420EE82EFED700D08C92E0
:0310D00012000803
:020000040020DA
:08000000FFFFFFFFFFFFFFFF00
:020000040030CA
:0E00000000091F1EFF8181FF0FC00FE00F409F
:00000001FF
