:04000000E2EF04F037
:1008000000008996040E0818D8A404D08C500F0B51
:10081000300901D03F0E8C6E1CEC05F0010E94ECFB
:1008200004F0040E0818D8A404D08C500F0B300923
:1008300001D03F0E8C6E1CEC05F0030E94EC04F01E
:10084000040E0818D8A404D08C500F0B300901D026
:100850003F0E8C6E1CEC05F0040E94EC04F0040EBC
:100860000818D8A411D08C500F0B20098C6E1CECEA
:1008700005F0040E94EC04F02F0EBFEC04F01CEC19
:1008800005F0040E94EC04F012EC05F00F0EBFEC32
:1008900004F01CEC05F0040E94EC04F012009598A2
:1008A000959A959C959E92969298899689988C98FF
:1008B0008C9A8C9C8C9E020E076EE70E066E000EC4
:1008C000E82EFED7062EFCD7072EFAD700D0040E4E
:1008D000F0EC04F001EC04F0480EFCEC04F06F0EB8
:1008E000FCEC04F06C0EFCEC04F0610EFCEC04F08B
:1008F000200EFCEC04F06D0EFCEC04F0750EFCEC2C
:1009000004F06E0EFCEC04F0640EFCEC04F06F0ED0
:10091000FCEC04F0C00E07EC05F0370EFCEC04F024
:100920003B0EFCEC04F0FFD7026E1BD0050E016EEF
:10093000DE0EE82EFED7012EFCD71200530EE82E55
:10094000FED70000350EE82EFED700001200080E7C
:10095000E82EFED700001200030EE82EFED700009E
:1009600012000250010AD8B4E1D7030AD8B4E6D77E
:10097000010AD8B4ECD7070AD8A41200EDD7046E48
:10098000040E0818D8A417D004C003F0F00E031604
:100990008C500F0B03108C6E1CEC05F0010E94ECC8
:1009A00004F004C003F0033AF00E03168C500F0B52
:1009B00003108C6E1200080E0818D8A4120004C090
:1009C0008CFF1200460EF66E0A0EF76E000EF86EE1
:1009D0000900F5CF08F0000EF86E00014FEF04F0AB
:1009E000016E040E0118D8B404D0080E0118D8A462
:1009F000120001C008F01200056E89860550BFEC98
:100A000004F01CEC05F0040E94EC04F01200056EEA
:100A100089960550BFEC04F01CEC05F0040E94EC34
:100A200004F012008996010EBFEC04F01CEC05F0F6
:100A3000020E94EC04F012008988030EE82EFED713
:070A40000000899812000874
:020000040020DA
:08000000FFFFFFFFFFFFFFFF00
:020000040030CA
:0E00000000091F1EFF8385FF0FC00FE00F4099
:00000001FF
